{
  "address": "0x795D3381F462F0cB2A9c4F75a34Ec14935C6BE29",
  "abi": [
    {
      "inputs": [],
      "name": "ApprovalCallerNotOwnerNorApproved",
      "type": "error"
    },
    {
      "inputs": [],
      "name": "ApprovalQueryForNonexistentToken",
      "type": "error"
    },
    {
      "inputs": [],
      "name": "BalanceQueryForZeroAddress",
      "type": "error"
    },
    {
      "inputs": [],
      "name": "MintERC2309QuantityExceedsLimit",
      "type": "error"
    },
    {
      "inputs": [],
      "name": "MintToZeroAddress",
      "type": "error"
    },
    {
      "inputs": [],
      "name": "MintZeroQuantity",
      "type": "error"
    },
    {
      "inputs": [],
      "name": "NotCompatibleWithSpotMints",
      "type": "error"
    },
    {
      "inputs": [],
      "name": "OwnerQueryForNonexistentToken",
      "type": "error"
    },
    {
      "inputs": [],
      "name": "OwnershipNotInitializedForExtraData",
      "type": "error"
    },
    {
      "inputs": [],
      "name": "QuantityExceeded",
      "type": "error"
    },
    {
      "inputs": [],
      "name": "SequentialMintExceedsLimit",
      "type": "error"
    },
    {
      "inputs": [],
      "name": "SequentialUpToTooSmall",
      "type": "error"
    },
    {
      "inputs": [],
      "name": "SpotMintTokenIdTooSmall",
      "type": "error"
    },
    {
      "inputs": [],
      "name": "TokenAlreadyExists",
      "type": "error"
    },
    {
      "inputs": [],
      "name": "TransferCallerNotOwnerNorApproved",
      "type": "error"
    },
    {
      "inputs": [],
      "name": "TransferFromIncorrectOwner",
      "type": "error"
    },
    {
      "inputs": [],
      "name": "TransferToNonERC721ReceiverImplementer",
      "type": "error"
    },
    {
      "inputs": [],
      "name": "TransferToZeroAddress",
      "type": "error"
    },
    {
      "inputs": [],
      "name": "URIQueryForNonexistentToken",
      "type": "error"
    },
    {
      "anonymous": false,
      "inputs": [
        {
          "indexed": true,
          "internalType": "address",
          "name": "owner",
          "type": "address"
        },
        {
          "indexed": true,
          "internalType": "address",
          "name": "approved",
          "type": "address"
        },
        {
          "indexed": true,
          "internalType": "uint256",
          "name": "tokenId",
          "type": "uint256"
        }
      ],
      "name": "Approval",
      "type": "event"
    },
    {
      "anonymous": false,
      "inputs": [
        {
          "indexed": true,
          "internalType": "address",
          "name": "owner",
          "type": "address"
        },
        {
          "indexed": true,
          "internalType": "address",
          "name": "operator",
          "type": "address"
        },
        {
          "indexed": false,
          "internalType": "bool",
          "name": "approved",
          "type": "bool"
        }
      ],
      "name": "ApprovalForAll",
      "type": "event"
    },
    {
      "anonymous": false,
      "inputs": [
        {
          "indexed": true,
          "internalType": "uint256",
          "name": "fromTokenId",
          "type": "uint256"
        },
        {
          "indexed": false,
          "internalType": "uint256",
          "name": "toTokenId",
          "type": "uint256"
        },
        {
          "indexed": true,
          "internalType": "address",
          "name": "from",
          "type": "address"
        },
        {
          "indexed": true,
          "internalType": "address",
          "name": "to",
          "type": "address"
        }
      ],
      "name": "ConsecutiveTransfer",
      "type": "event"
    },
    {
      "anonymous": false,
      "inputs": [
        {
          "indexed": false,
          "internalType": "uint8",
          "name": "version",
          "type": "uint8"
        }
      ],
      "name": "Initialized",
      "type": "event"
    },
    {
      "anonymous": false,
      "inputs": [
        {
          "indexed": true,
          "internalType": "address",
          "name": "previousOwner",
          "type": "address"
        },
        {
          "indexed": true,
          "internalType": "address",
          "name": "newOwner",
          "type": "address"
        }
      ],
      "name": "OwnershipTransferred",
      "type": "event"
    },
    {
      "anonymous": false,
      "inputs": [
        {
          "indexed": true,
          "internalType": "address",
          "name": "from",
          "type": "address"
        },
        {
          "indexed": true,
          "internalType": "address",
          "name": "to",
          "type": "address"
        },
        {
          "indexed": true,
          "internalType": "uint256",
          "name": "tokenId",
          "type": "uint256"
        }
      ],
      "name": "Transfer",
      "type": "event"
    },
    {
      "inputs": [
        {
          "internalType": "uint256",
          "name": "quantity",
          "type": "uint256"
        }
      ],
      "name": "adminMint",
      "outputs": [],
      "stateMutability": "payable",
      "type": "function"
    },
    {
      "inputs": [
        {
          "internalType": "address",
          "name": "to",
          "type": "address"
        },
        {
          "internalType": "uint256",
          "name": "tokenId",
          "type": "uint256"
        }
      ],
      "name": "approve",
      "outputs": [],
      "stateMutability": "payable",
      "type": "function"
    },
    {
      "inputs": [
        {
          "internalType": "address",
          "name": "owner",
          "type": "address"
        }
      ],
      "name": "balanceOf",
      "outputs": [
        {
          "internalType": "uint256",
          "name": "",
          "type": "uint256"
        }
      ],
      "stateMutability": "view",
      "type": "function"
    },
    {
      "inputs": [
        {
          "internalType": "uint256",
          "name": "tokenId",
          "type": "uint256"
        }
      ],
      "name": "getApproved",
      "outputs": [
        {
          "internalType": "address",
          "name": "",
          "type": "address"
        }
      ],
      "stateMutability": "view",
      "type": "function"
    },
    {
      "inputs": [
        {
          "internalType": "string",
          "name": "name",
          "type": "string"
        },
        {
          "internalType": "string",
          "name": "symbol",
          "type": "string"
        }
      ],
      "name": "initialize",
      "outputs": [],
      "stateMutability": "nonpayable",
      "type": "function"
    },
    {
      "inputs": [
        {
          "internalType": "address",
          "name": "owner",
          "type": "address"
        },
        {
          "internalType": "address",
          "name": "operator",
          "type": "address"
        }
      ],
      "name": "isApprovedForAll",
      "outputs": [
        {
          "internalType": "bool",
          "name": "",
          "type": "bool"
        }
      ],
      "stateMutability": "view",
      "type": "function"
    },
    {
      "inputs": [
        {
          "internalType": "uint256",
          "name": "quantity",
          "type": "uint256"
        }
      ],
      "name": "mint",
      "outputs": [],
      "stateMutability": "payable",
      "type": "function"
    },
    {
      "inputs": [],
      "name": "name",
      "outputs": [
        {
          "internalType": "string",
          "name": "",
          "type": "string"
        }
      ],
      "stateMutability": "view",
      "type": "function"
    },
    {
      "inputs": [],
      "name": "owner",
      "outputs": [
        {
          "internalType": "address",
          "name": "",
          "type": "address"
        }
      ],
      "stateMutability": "view",
      "type": "function"
    },
    {
      "inputs": [
        {
          "internalType": "uint256",
          "name": "tokenId",
          "type": "uint256"
        }
      ],
      "name": "ownerOf",
      "outputs": [
        {
          "internalType": "address",
          "name": "",
          "type": "address"
        }
      ],
      "stateMutability": "view",
      "type": "function"
    },
    {
      "inputs": [],
      "name": "renounceOwnership",
      "outputs": [],
      "stateMutability": "nonpayable",
      "type": "function"
    },
    {
      "inputs": [
        {
          "internalType": "address",
          "name": "from",
          "type": "address"
        },
        {
          "internalType": "address",
          "name": "to",
          "type": "address"
        },
        {
          "internalType": "uint256",
          "name": "tokenId",
          "type": "uint256"
        }
      ],
      "name": "safeTransferFrom",
      "outputs": [],
      "stateMutability": "payable",
      "type": "function"
    },
    {
      "inputs": [
        {
          "internalType": "address",
          "name": "from",
          "type": "address"
        },
        {
          "internalType": "address",
          "name": "to",
          "type": "address"
        },
        {
          "internalType": "uint256",
          "name": "tokenId",
          "type": "uint256"
        },
        {
          "internalType": "bytes",
          "name": "_data",
          "type": "bytes"
        }
      ],
      "name": "safeTransferFrom",
      "outputs": [],
      "stateMutability": "payable",
      "type": "function"
    },
    {
      "inputs": [
        {
          "internalType": "address",
          "name": "operator",
          "type": "address"
        },
        {
          "internalType": "bool",
          "name": "approved",
          "type": "bool"
        }
      ],
      "name": "setApprovalForAll",
      "outputs": [],
      "stateMutability": "nonpayable",
      "type": "function"
    },
    {
      "inputs": [
        {
          "internalType": "bytes4",
          "name": "interfaceId",
          "type": "bytes4"
        }
      ],
      "name": "supportsInterface",
      "outputs": [
        {
          "internalType": "bool",
          "name": "",
          "type": "bool"
        }
      ],
      "stateMutability": "view",
      "type": "function"
    },
    {
      "inputs": [],
      "name": "symbol",
      "outputs": [
        {
          "internalType": "string",
          "name": "",
          "type": "string"
        }
      ],
      "stateMutability": "view",
      "type": "function"
    },
    {
      "inputs": [
        {
          "internalType": "uint256",
          "name": "tokenId",
          "type": "uint256"
        }
      ],
      "name": "tokenURI",
      "outputs": [
        {
          "internalType": "string",
          "name": "",
          "type": "string"
        }
      ],
      "stateMutability": "view",
      "type": "function"
    },
    {
      "inputs": [],
      "name": "totalSupply",
      "outputs": [
        {
          "internalType": "uint256",
          "name": "result",
          "type": "uint256"
        }
      ],
      "stateMutability": "view",
      "type": "function"
    },
    {
      "inputs": [
        {
          "internalType": "address",
          "name": "from",
          "type": "address"
        },
        {
          "internalType": "address",
          "name": "to",
          "type": "address"
        },
        {
          "internalType": "uint256",
          "name": "tokenId",
          "type": "uint256"
        }
      ],
      "name": "transferFrom",
      "outputs": [],
      "stateMutability": "payable",
      "type": "function"
    },
    {
      "inputs": [
        {
          "internalType": "address",
          "name": "newOwner",
          "type": "address"
        }
      ],
      "name": "transferOwnership",
      "outputs": [],
      "stateMutability": "nonpayable",
      "type": "function"
    }
  ],
  "transactionHash": "0xd1949ca30f9aa5f31eb4fb037927c5a07093f84b822ae9522a11fa1f40929911",
  "args": [],
  "numDeployments": 1,
  "solcInputHash": "74c4469a12d43d1f5f8992b79fc8276d",
  "bytecode": "0x6080604052348015600f57600080fd5b506117d38061001f6000396000f3fe60806040526004361061011f5760003560e01c8063715018a6116100a0578063b88d4fde11610064578063b88d4fde146102ec578063c1f26123146102ff578063c87b56dd14610312578063e985e9c514610332578063f2fde38b1461035257600080fd5b8063715018a6146102715780638da5cb5b1461028657806395d89b41146102a4578063a0712d68146102b9578063a22cb465146102cc57600080fd5b806323b872dd116100e757806323b872dd146101eb57806342842e0e146101fe5780634cd88b76146102115780636352211e1461023157806370a082311461025157600080fd5b806301ffc9a71461012457806306fdde0314610159578063081812fc1461017b578063095ea7b3146101b357806318160ddd146101c8575b600080fd5b34801561013057600080fd5b5061014461013f3660046111b3565b610372565b60405190151581526020015b60405180910390f35b34801561016557600080fd5b5061016e6103c4565b6040516101509190611220565b34801561018757600080fd5b5061019b610196366004611233565b61045f565b6040516001600160a01b039091168152602001610150565b6101c66101c1366004611263565b6104a3565b005b3480156101d457600080fd5b506101dd6104b3565b604051908152602001610150565b6101c66101f936600461128d565b6104d2565b6101c661020c36600461128d565b610695565b34801561021d57600080fd5b506101c661022c36600461137a565b6106b5565b34801561023d57600080fd5b5061019b61024c366004611233565b6108dd565b34801561025d57600080fd5b506101dd61026c3660046113e3565b6108e8565b34801561027d57600080fd5b506101c6610948565b34801561029257600080fd5b506033546001600160a01b031661019b565b3480156102b057600080fd5b5061016e61095c565b6101c66102c7366004611233565b610974565b3480156102d857600080fd5b506101c66102e73660046113fe565b6109a2565b6101c66102fa36600461143a565b610a1f565b6101c661030d366004611233565b610a60565b34801561031e57600080fd5b5061016e61032d366004611233565b610a72565b34801561033e57600080fd5b5061014461034d3660046114b6565b610afa565b34801561035e57600080fd5b506101c661036d3660046113e3565b610b37565b60006301ffc9a760e01b6001600160e01b0319831614806103a357506380ac58cd60e01b6001600160e01b03198316145b806103be5750635b5e139f60e01b6001600160e01b03198316145b92915050565b60606103ce610bad565b60020180546103dc906114e9565b80601f0160208091040260200160405190810160405280929190818152602001828054610408906114e9565b80156104555780601f1061042a57610100808354040283529160200191610455565b820191906000526020600020905b81548152906001019060200180831161043857829003601f168201915b5050505050905090565b600061046a82610bd1565b61047e5761047e6333d1c03960e21b610c29565b610486610bad565b60009283526006016020525060409020546001600160a01b031690565b6104af82826001610c33565b5050565b6000806104be610bad565b600101546104ca610bad565b540303905090565b60006104dd82610ce4565b6001600160a01b0394851694909150811684146105035761050362a1148160e81b610c29565b60008061050f84610d9f565b91509150610534818761051f3390565b6001600160a01b039081169116811491141790565b610556576105428633610afa565b61055657610556632ce44b5f60e11b610c29565b801561056157600082555b610569610bad565b6001600160a01b0387166000908152600591909101602052604090208054600019019055610595610bad565b6001600160a01b03861660008181526005929092016020526040909120805460010190554260a01b17600160e11b176105cc610bad565b60008681526004919091016020526040812091909155600160e11b8416900361064257600184016105fb610bad565b6000828152600491909101602052604081205490036106405761061c610bad565b548114610640578361062c610bad565b600083815260049190910160205260409020555b505b6001600160a01b0385168481887fddf252ad1be2c89b69c2b068fc378daa952ba7f163c4a11628f55a4df523b3ef600080a48060000361068c5761068c633a954ecd60e21b610c29565b50505050505050565b6106b083838360405180602001604052806000815250610a1f565b505050565b60008051602061177e83398151915254610100900460ff166106ea5760008051602061177e8339815191525460ff16156106ee565b303b155b6107655760405162461bcd60e51b815260206004820152603760248201527f455243373231415f5f496e697469616c697a61626c653a20636f6e747261637460448201527f20697320616c726561647920696e697469616c697a656400000000000000000060648201526084015b60405180910390fd5b60008051602061177e83398151915254610100900460ff161580156107a15760008051602061177e833981519152805461ffff19166101011790555b600054610100900460ff16158080156107c15750600054600160ff909116105b806107db5750303b1580156107db575060005460ff166001145b61083e5760405162461bcd60e51b815260206004820152602e60248201527f496e697469616c697a61626c653a20636f6e747261637420697320616c72656160448201526d191e481a5b9a5d1a585b1a5e995960921b606482015260840161075c565b6000805460ff191660011790558015610861576000805461ff0019166101001790555b61086b8484610dc7565b610873610e05565b80156108b9576000805461ff0019169055604051600181527f7f26b83ff96e1f2b6a682f133852f6798a09c465da95921460cefb38474024989060200160405180910390a15b5080156106b057505060008051602061177e833981519152805461ff001916905550565b60006103be82610ce4565b60006001600160a01b038216610908576109086323d3ad8160e21b610c29565b67ffffffffffffffff610919610bad565b6005016000846001600160a01b03166001600160a01b0316815260200190815260200160002054169050919050565b610950610e34565b61095a6000610e8e565b565b6060610966610bad565b60030180546103dc906114e9565b60038111610989576109863382610ee0565b50565b604051634fc2369960e01b815260040160405180910390fd5b806109ab610bad565b336000818152600792909201602090815260408084206001600160a01b03881680865290835293819020805460ff19169515159590951790945592518415158152919290917f17307eab39ab6107e8899845ad3d59bd9653f200f220920489ca2b5937696c31910160405180910390a35050565b610a2a8484846104d2565b6001600160a01b0383163b15610a5a57610a4684848484610fd4565b610a5a57610a5a6368d2bf6b60e11b610c29565b50505050565b610a68610e34565b6109863382610ee0565b6060610a7d82610bd1565b610a9157610a91630a14c4b560e41b610c29565b6000610aa860408051602081019091526000815290565b90508051600003610ac85760405180602001604052806000815250610af3565b80610ad2846110b6565b604051602001610ae3929190611523565b6040516020818303038152906040525b9392505050565b6000610b04610bad565b6001600160a01b039384166000908152600791909101602090815260408083209490951682529290925250205460ff1690565b610b3f610e34565b6001600160a01b038116610ba45760405162461bcd60e51b815260206004820152602660248201527f4f776e61626c653a206e6577206f776e657220697320746865207a65726f206160448201526564647265737360d01b606482015260840161075c565b61098681610e8e565b7f2569078dfb4b0305704d3008e7403993ae9601b85f7ae5e742de3de8f8011c4090565b6000610bdb610bad565b54821015610c245760005b610bee610bad565b600084815260049190910160205260408120549150819003610c1a57610c1383611552565b9250610be6565b600160e01b161590505b919050565b8060005260046000fd5b6000610c3e836108dd565b9050818015610c565750336001600160a01b03821614155b15610c7957610c658133610afa565b610c7957610c796367d9dca160e11b610c29565b83610c82610bad565b6000858152600691909101602052604080822080546001600160a01b0319166001600160a01b0394851617905551859287811692908516917f8c5be1e5ebec7d5bd14f71427d1e84f3dd0314c0f7b2291e5b200ac8c7c3b9259190a450505050565b6000610cee610bad565b60008381526004919091016020526040902054905080600003610d7c57610d13610bad565b548210610d2a57610d2a636f96cda160e11b610c29565b610d32610bad565b600019909201600081815260049390930160205260409092205490508015610d2a57600160e01b8116600003610d6757919050565b610d77636f96cda160e11b610c29565b610d2a565b600160e01b8116600003610d8f57919050565b610c24636f96cda160e11b610c29565b6000806000610dac610bad565b60009485526006016020525050604090912080549092909150565b60008051602061177e83398151915254610100900460ff16610dfb5760405162461bcd60e51b815260040161075c90611577565b6104af82826110fa565b600054610100900460ff16610e2c5760405162461bcd60e51b815260040161075c906115cb565b61095a61116d565b6033546001600160a01b0316331461095a5760405162461bcd60e51b815260206004820181905260248201527f4f776e61626c653a2063616c6c6572206973206e6f7420746865206f776e6572604482015260640161075c565b603380546001600160a01b038381166001600160a01b0319831681179093556040519116919082907f8be0079c531659141344cd1fd0a4f28419497f9722a3daafe3b4186f6b6457e090600090a35050565b6000610eea610bad565b5490506000829003610f0657610f0663b562e8dd60e01b610c29565b6001600160a01b0383164260a01b6001841460e11b1717610f25610bad565b60008381526004919091016020526040902055680100000000000000018202610f4c610bad565b6001600160a01b0385166000818152600592909201602052604082208054909301909255819003610f8657610f86622e076360e81b610c29565b818301825b808360007fddf252ad1be2c89b69c2b068fc378daa952ba7f163c4a11628f55a4df523b3ef600080a4818160010191508103610f8b5781610fca610bad565b55506106b0915050565b604051630a85bd0160e11b81526000906001600160a01b0385169063150b7a0290611009903390899088908890600401611616565b6020604051808303816000875af1925050508015611044575060408051601f3d908101601f1916820190925261104191810190611653565b60015b611099573d808015611072576040519150601f19603f3d011682016040523d82523d6000602084013e611077565b606091505b508051600003611091576110916368d2bf6b60e11b610c29565b805181602001fd5b6001600160e01b031916630a85bd0160e11b149050949350505050565b606060a06040510180604052602081039150506000815280825b600183039250600a81066030018353600a9004806110d05750819003601f19909101908152919050565b60008051602061177e83398151915254610100900460ff1661112e5760405162461bcd60e51b815260040161075c90611577565b81611137610bad565b6002019061114590826116be565b508061114f610bad565b6003019061115d90826116be565b506000611168610bad565b555050565b600054610100900460ff166111945760405162461bcd60e51b815260040161075c906115cb565b61095a33610e8e565b6001600160e01b03198116811461098657600080fd5b6000602082840312156111c557600080fd5b8135610af38161119d565b60005b838110156111eb5781810151838201526020016111d3565b50506000910152565b6000815180845261120c8160208601602086016111d0565b601f01601f19169290920160200192915050565b602081526000610af360208301846111f4565b60006020828403121561124557600080fd5b5035919050565b80356001600160a01b0381168114610c2457600080fd5b6000806040838503121561127657600080fd5b61127f8361124c565b946020939093013593505050565b6000806000606084860312156112a257600080fd5b6112ab8461124c565b92506112b96020850161124c565b929592945050506040919091013590565b634e487b7160e01b600052604160045260246000fd5b60008067ffffffffffffffff8411156112fb576112fb6112ca565b50604051601f19601f85018116603f0116810181811067ffffffffffffffff8211171561132a5761132a6112ca565b60405283815290508082840185101561134257600080fd5b83836020830137600060208583010152509392505050565b600082601f83011261136b57600080fd5b610af3838335602085016112e0565b6000806040838503121561138d57600080fd5b823567ffffffffffffffff8111156113a457600080fd5b6113b08582860161135a565b925050602083013567ffffffffffffffff8111156113cd57600080fd5b6113d98582860161135a565b9150509250929050565b6000602082840312156113f557600080fd5b610af38261124c565b6000806040838503121561141157600080fd5b61141a8361124c565b91506020830135801515811461142f57600080fd5b809150509250929050565b6000806000806080858703121561145057600080fd5b6114598561124c565b93506114676020860161124c565b925060408501359150606085013567ffffffffffffffff81111561148a57600080fd5b8501601f8101871361149b57600080fd5b6114aa878235602084016112e0565b91505092959194509250565b600080604083850312156114c957600080fd5b6114d28361124c565b91506114e06020840161124c565b90509250929050565b600181811c908216806114fd57607f821691505b60208210810361151d57634e487b7160e01b600052602260045260246000fd5b50919050565b600083516115358184602088016111d0565b8351908301906115498183602088016111d0565b01949350505050565b60008161156f57634e487b7160e01b600052601160045260246000fd5b506000190190565b60208082526034908201527f455243373231415f5f496e697469616c697a61626c653a20636f6e7472616374604082015273206973206e6f7420696e697469616c697a696e6760601b606082015260800190565b6020808252602b908201527f496e697469616c697a61626c653a20636f6e7472616374206973206e6f74206960408201526a6e697469616c697a696e6760a81b606082015260800190565b6001600160a01b0385811682528416602082015260408101839052608060608201819052600090611649908301846111f4565b9695505050505050565b60006020828403121561166557600080fd5b8151610af38161119d565b601f8211156106b057806000526020600020601f840160051c810160208510156116975750805b601f840160051c820191505b818110156116b757600081556001016116a3565b5050505050565b815167ffffffffffffffff8111156116d8576116d86112ca565b6116ec816116e684546114e9565b84611670565b6020601f82116001811461172057600083156117085750848201515b600019600385901b1c1916600184901b1784556116b7565b600084815260208120601f198516915b828110156117505787850151825560209485019460019092019101611730565b508482101561176e5786840151600019600387901b60f8161c191681555b50505050600190811b0190555056feee151c8401928dc223602bb187aff91b9a56c7cae5476ef1b3287b085a16c85fa2646970667358221220194a80e08341cfbcbc2403ea16b3d4307e50bb3b0141fd8451666d1be31f993f64736f6c634300081c0033",
  "devdoc": {
    "events": {
      "Approval(address,address,uint256)": {
        "details": "Emitted when `owner` enables `approved` to manage the `tokenId` token."
      },
      "ApprovalForAll(address,address,bool)": {
        "details": "Emitted when `owner` enables or disables (`approved`) `operator` to manage all of its assets."
      },
      "ConsecutiveTransfer(uint256,uint256,address,address)": {
        "details": "Emitted when tokens in `fromTokenId` to `toTokenId` (inclusive) is transferred from `from` to `to`, as defined in the [ERC2309](https://eips.ethereum.org/EIPS/eip-2309) standard. See {_mintERC2309} for more details."
      },
      "Initialized(uint8)": {
        "details": "Triggered when the contract has been initialized or reinitialized."
      },
      "Transfer(address,address,uint256)": {
        "details": "Emitted when `tokenId` token is transferred from `from` to `to`."
      }
    },
    "kind": "dev",
    "methods": {
      "approve(address,uint256)": {
        "details": "Gives permission to `to` to transfer `tokenId` token to another account. See {ERC721A-_approve}. Requirements: - The caller must own the token or be an approved operator."
      },
      "balanceOf(address)": {
        "details": "Returns the number of tokens in `owner`'s account."
      },
      "getApproved(uint256)": {
        "details": "Returns the account approved for `tokenId` token. Requirements: - `tokenId` must exist."
      },
      "isApprovedForAll(address,address)": {
        "details": "Returns if the `operator` is allowed to manage all of the assets of `owner`. See {setApprovalForAll}."
      },
      "name()": {
        "details": "Returns the token collection name."
      },
      "owner()": {
        "details": "Returns the address of the current owner."
      },
      "ownerOf(uint256)": {
        "details": "Returns the owner of the `tokenId` token. Requirements: - `tokenId` must exist."
      },
      "renounceOwnership()": {
        "details": "Leaves the contract without owner. It will not be possible to call `onlyOwner` functions. Can only be called by the current owner. NOTE: Renouncing ownership will leave the contract without an owner, thereby disabling any functionality that is only available to the owner."
      },
      "safeTransferFrom(address,address,uint256)": {
        "details": "Equivalent to `safeTransferFrom(from, to, tokenId, '')`."
      },
      "safeTransferFrom(address,address,uint256,bytes)": {
        "details": "Safely transfers `tokenId` token from `from` to `to`. Requirements: - `from` cannot be the zero address. - `to` cannot be the zero address. - `tokenId` token must exist and be owned by `from`. - If the caller is not `from`, it must be approved to move this token by either {approve} or {setApprovalForAll}. - If `to` refers to a smart contract, it must implement {IERC721Receiver-onERC721Received}, which is called upon a safe transfer. Emits a {Transfer} event."
      },
      "setApprovalForAll(address,bool)": {
        "details": "Approve or remove `operator` as an operator for the caller. Operators can call {transferFrom} or {safeTransferFrom} for any token owned by the caller. Requirements: - The `operator` cannot be the caller. Emits an {ApprovalForAll} event."
      },
      "supportsInterface(bytes4)": {
        "details": "Returns true if this contract implements the interface defined by `interfaceId`. See the corresponding [EIP section](https://eips.ethereum.org/EIPS/eip-165#how-interfaces-are-identified) to learn more about how these ids are created. This function call must use less than 30000 gas."
      },
      "symbol()": {
        "details": "Returns the token collection symbol."
      },
      "tokenURI(uint256)": {
        "details": "Returns the Uniform Resource Identifier (URI) for `tokenId` token."
      },
      "totalSupply()": {
        "details": "Returns the total number of tokens in existence. Burned tokens will reduce the count. To get the total number of tokens minted, please see {_totalMinted}."
      },
      "transferFrom(address,address,uint256)": {
        "details": "Transfers `tokenId` from `from` to `to`. Requirements: - `from` cannot be the zero address. - `to` cannot be the zero address. - `tokenId` token must be owned by `from`. - If the caller is not `from`, it must be approved to move this token by either {approve} or {setApprovalForAll}. Emits a {Transfer} event."
      },
      "transferOwnership(address)": {
        "details": "Transfers ownership of the contract to a new account (`newOwner`). Can only be called by the current owner."
      }
    },
    "version": 1
  },
  "userdoc": {
    "errors": {
      "ApprovalCallerNotOwnerNorApproved()": [
        {
          "notice": "The caller must own the token or be an approved operator."
        }
      ],
      "ApprovalQueryForNonexistentToken()": [
        {
          "notice": "The token does not exist."
        }
      ],
      "BalanceQueryForZeroAddress()": [
        {
          "notice": "Cannot query the balance for the zero address."
        }
      ],
      "MintERC2309QuantityExceedsLimit()": [
        {
          "notice": "The `quantity` minted with ERC2309 exceeds the safety limit."
        }
      ],
      "MintToZeroAddress()": [
        {
          "notice": "Cannot mint to the zero address."
        }
      ],
      "MintZeroQuantity()": [
        {
          "notice": "The quantity of tokens minted must be more than zero."
        }
      ],
      "NotCompatibleWithSpotMints()": [
        {
          "notice": "The feature is not compatible with spot mints."
        }
      ],
      "OwnerQueryForNonexistentToken()": [
        {
          "notice": "The token does not exist."
        }
      ],
      "OwnershipNotInitializedForExtraData()": [
        {
          "notice": "The `extraData` cannot be set on an unintialized ownership slot."
        }
      ],
      "SequentialMintExceedsLimit()": [
        {
          "notice": "The `tokenId` of a sequential mint exceeds `_sequentialUpTo()`."
        }
      ],
      "SequentialUpToTooSmall()": [
        {
          "notice": "`_sequentialUpTo()` must be greater than `_startTokenId()`."
        }
      ],
      "SpotMintTokenIdTooSmall()": [
        {
          "notice": "Spot minting requires a `tokenId` greater than `_sequentialUpTo()`."
        }
      ],
      "TokenAlreadyExists()": [
        {
          "notice": "Cannot mint over a token that already exists."
        }
      ],
      "TransferCallerNotOwnerNorApproved()": [
        {
          "notice": "The caller must own the token or be an approved operator."
        }
      ],
      "TransferFromIncorrectOwner()": [
        {
          "notice": "The token must be owned by `from`."
        }
      ],
      "TransferToNonERC721ReceiverImplementer()": [
        {
          "notice": "Cannot safely transfer to a contract that does not implement the ERC721Receiver interface."
        }
      ],
      "TransferToZeroAddress()": [
        {
          "notice": "Cannot transfer to the zero address."
        }
      ],
      "URIQueryForNonexistentToken()": [
        {
          "notice": "The token does not exist."
        }
      ]
    },
    "kind": "user",
    "methods": {},
    "version": 1
  },
  "storageLayout": {
    "storage": [
      {
        "astId": 139,
        "contract": "contracts/UpgradeableNFT.sol:UpgradeableNFT",
        "label": "_initialized",
        "offset": 0,
        "slot": "0",
        "type": "t_uint8"
      },
      {
        "astId": 142,
        "contract": "contracts/UpgradeableNFT.sol:UpgradeableNFT",
        "label": "_initializing",
        "offset": 1,
        "slot": "0",
        "type": "t_bool"
      },
      {
        "astId": 681,
        "contract": "contracts/UpgradeableNFT.sol:UpgradeableNFT",
        "label": "__gap",
        "offset": 0,
        "slot": "1",
        "type": "t_array(t_uint256)50_storage"
      },
      {
        "astId": 11,
        "contract": "contracts/UpgradeableNFT.sol:UpgradeableNFT",
        "label": "_owner",
        "offset": 0,
        "slot": "51",
        "type": "t_address"
      },
      {
        "astId": 131,
        "contract": "contracts/UpgradeableNFT.sol:UpgradeableNFT",
        "label": "__gap",
        "offset": 0,
        "slot": "52",
        "type": "t_array(t_uint256)49_storage"
      }
    ],
    "types": {
      "t_address": {
        "encoding": "inplace",
        "label": "address",
        "numberOfBytes": "20"
      },
      "t_array(t_uint256)49_storage": {
        "base": "t_uint256",
        "encoding": "inplace",
        "label": "uint256[49]",
        "numberOfBytes": "1568"
      },
      "t_array(t_uint256)50_storage": {
        "base": "t_uint256",
        "encoding": "inplace",
        "label": "uint256[50]",
        "numberOfBytes": "1600"
      },
      "t_bool": {
        "encoding": "inplace",
        "label": "bool",
        "numberOfBytes": "1"
      },
      "t_uint256": {
        "encoding": "inplace",
        "label": "uint256",
        "numberOfBytes": "32"
      },
      "t_uint8": {
        "encoding": "inplace",
        "label": "uint8",
        "numberOfBytes": "1"
      }
    }
  }
}